:020000040800F2
:10000000583E0120E102000853170008B51400080B
:10001000B91600084F050008AD22000800000000D6
:10002000000000000000000000000000290200089D
:10003000DD130008000000007D020008FD1E00081E
:10004000FB020008FB020008FB020008FB0200089C
:10005000FB020008FB020008FB020008FB0200088C
:10006000FB020008FB020008FB020008FB0200087C
:10007000FB020008FB020008FB020008FB0200086C
:10008000FB020008FB020008FB020008FB0200085C
:10009000D1050008FB020008FB020008FB02000873
:1000A000FB020008FB020008FB020008FB0200083C
:1000B000FB020008FB020008FB020008FB0200082C
:1000C000FB020008FB020008FB020008FB0200081C
:1000D000FB020008FB020008CD1F0008FB0200081D
:1000E000FB020008FB020008FB020008FB020008FC
:1000F000FB020008FB020008FB020008FB020008EC
:10010000FB020008FB020008FB020008FB020008DB
:10011000FB020008FB020008FB020008FB020008CB
:10012000FB020008FB020008FB020008FB020008BB
:10013000FB020008FB020008FB020008FB020008AB
:10014000ED070008FB020008FB020008FB020008A4
:10015000D5100008FB020008FB020008FB020008A3
:10016000FB020008FB020008FB020008FB0200087B
:10017000FB020008FB020008FB020008FB0200086B
:10018000FB020008FB02000800F002F800F03CF857
:100190000AA090E8000C82448344AAF10107DA45E2
:1001A00001D100F031F8AFF2090EBAE80F0013F0F8
:1001B000010F18BFFB1A43F0010318472442000047
:1001C00044420000103A24BF78C878C1FAD85207D8
:1001D00024BF30C830C144BF04680C6070470000C1
:1001E0000023002400250026103A28BF78C1FBD840
:1001F000520728BF30C148BF0B6070471FB504F0DD
:10020000E9F81FBD10B510BD00F05AF91146FFF70F
:10021000F5FF02F084F900F078F903B4FFF7F2FF7C
:1002200003BC00F07BF900002A4B19680868B0E8AD
:10023000F04F80F30988BFF36F8F4FF0000080F319
:10024000118870470000000006480068006880F3CD
:10025000088862B661B6BFF34F8FBFF36F8F00DFC0
:1002600000BF00BF08ED00E0DFF80C00016841F4BA
:1002700070010160704700BF88ED00E0EFF3098076
:10028000BFF36F8F134B1A681EF0100F08BF20EDDD
:10029000108A20E9F04F106008B44FF0500080F34E
:1002A0001188BFF34F8FBFF36F8F03F01BFA4FF02E
:1002B000000080F3118808BC19680868B0E8F04FA6
:1002C0001EF0100F08BFB0EC108A80F30988BFF34E
:1002D0006F8F704724000020EFF305807047000007
:1002E0000948804709480047FEE7FEE7FEE7FEE7CA
:1002F000FEE7FEE7FEE7FEE7FEE7FEE70448054906
:10030000054A064B704700000D1F000889010008D0
:1003100058380120583E0120583A0120583A01200F
:10032000032A40F2308010F0030C00F0158011F821
:10033000013BBCF1020F624498BF11F801CB00F8F9
:10034000013B38BF11F8013BA2F1040298BF00F84D
:1003500001CB38BF00F8013B11F0030300F03080FF
:10036000083AC0F0088051F8043B083A51F804CB31
:10037000A0E80810F5E7121D5CBF51F8043B40F8F7
:10038000043BAFF30080D20724BF11F8013B11F802
:1003900001CB48BF11F8012B24BF00F8013B00F846
:1003A00001CB48BF00F8012B704702F0FF0343EA7E
:1003B000032242EA024200F037B8704770477047A4
:1003C00010B5203AC0F00B80B1E81850203AA0E8F0
:1003D0001850B1E81850A0E81850BFF4F5AF5FEA24
:1003E000027C24BFB1E81850A0E8185044BF18C9D7
:1003F00018C0BDE810405FEA827C24BF51F8043B7E
:1004000040F8043B08BF7047D20728BF31F8023BD1
:1004100048BF11F8012B28BF20F8023B48BF00F865
:10042000012B70474FF000020429C0F0128010F039
:10043000030C00F01B80CCF1040CBCF1020F18BFC0
:1004400000F8012BA8BF20F8022BA1EB0C0100F053
:100450000DB85FEAC17C24BF00F8012B00F8012B26
:1004600048BF00F8012B70474FF0000200B513465B
:1004700094469646203922BFA0E80C50A0E80C50C4
:10048000B1F12001BFF4F7AF090728BFA0E80C5075
:1004900048BF0CC05DF804EB890028BF40F8042B6E
:1004A00008BF704748BF20F8022B11F0804F18BFDB
:1004B00000F8012B7047000000487047F837012012
:1004C0007546FFF7F9FFAE4605006946534620F032
:1004D0000700854618B020B5FFF710FFBDE82040A3
:1004E0004FF000064FF000074FF000084FF0000BF0
:1004F00021F00701AC46ACE8C009ACE8C009ACE8A3
:10050000C009ACE8C0098D46704710B50446AFF38A
:1005100000802046BDE81040FFF77FBE014918204B
:10052000ABBEFEE726000200704701EBD1735B1003
:100530005B42834202DD4A1E024410B201EBD173DA
:10054000B0EB630F02DD4A1E821A10B2704700BF83
:10055000FEE700002DE9F04186B004460D46164640
:10056000002740F2FF10019000208DF80C008DF85C
:100570000D0008208DF80E00200A8DF80F008DF870
:100580001040290A8DF811108DF81250310A8DF89B
:1005900013108DF8146000218DF815108DF81610C9
:1005A00001A90A4800F093FC804600BF01E0781CD6
:1005B00087B24146054800F01DFD18B940F6FF70AE
:1005C0008742F4DB06B0BDE8F08100000064004023
:1005D00000B585B002210B4800F0DEFA78B10221A7
:1005E000084800F001FA0849064800F0E1F96A46B7
:1005F0000021044800F0F3FB684600F007F805B05E
:1006000000BD0000006400400800003210B5044640
:100610002068A0F2012007285FD2DFE800F0041272
:10062000202E3C5E5000207BE17A40EA01202C49DC
:100630000880A17B607B41EA002000B22849488005
:100640004CE0207BE17A40EA012025498882A17BA9
:10065000607B41EA002001B22148C1823EE0207B5C
:10066000E17A40EA01201E490885A17B607B41EACE
:10067000002001B21A48418530E0207BE17A40EA4F
:10068000012017498887A17B607B41EA002001B2E5
:100690001348C18722E0207BE17A40EA012011491A
:1006A00008804FF4005239210E4801F033F8A17B45
:1006B000607B41EA002000B20A4948800EE0207BBE
:1006C000E17A40EA012008490880A17B607B41EA89
:1006D000002000B20449488000E000BF00BF10BD08
:1006E0002C2E0120902E01207C2E01202DE9F0419E
:1006F0008AB004460D4616461F46DDF840800121AB
:10070000082001F01BF90121480601F027F9032018
:10071000089002208DF8240000208DF82600022089
:100720008DF8250001208DF8270008A92D4800F03C
:1007300056FE092200212B4800F099FE09220121D2
:10074000284800F094FE00208DF81A0001208DF852
:100750001B0000208DF81C008DF81D008DF81E0078
:100760008DF81F008DF816808DF817408DF81860F1
:100770008DF81950ADF8147005A91B4800F0A5FAC2
:1007800000208DF80E008DF80F0001208DF810006C
:100790000020ADF80400ADF80600ADF80800ADF893
:1007A0000A00ADF80C0001208DF8110001A800F03E
:1007B0006FF9012202210C4800F07EFA14208DF816
:1007C000000004208DF8010000208DF802000120B7
:1007D0008DF80300684600F0BDFF00200AB0BDE8B8
:1007E000F0810000000C02400064004010B50221BE
:1007F0000A4800F0D1F978B10221084800F0F4F875
:100800000749064800F0D4F8064A0021034800F0E2
:10081000E6FA044800F008F810BD00000068004047
:1008200008000032CC2E01200168B1F5407F32D1A2
:10083000817B0A06417B42EA0142017B42EA0121B7
:10084000C27A1143154A1161C17A642291FBF2F315
:1008500002FB13110A2291FBF2F14AB2104981F80E
:100860004925C17A0A2291FBF2F302FB131149B226
:100870000C4A1170427B017B42EA01210AB208490D
:10088000A1F85625C27B817B42EA012109B2064AC2
:10089000A2F8541000BF00BF70470000902E012046
:1008A0003C320120C0000020E43101202DE9F0415C
:1008B0008AB004460D4616461F46DDF840800121E9
:1008C000022001F03BF80121880601F047F84FF4BF
:1008D0004050089002208DF8240000208DF826005A
:1008E00003208DF8250001208DF8270008A92E4847
:1008F00000F075FD09220C212B4800F0B8FD0922FB
:100900000D21294800F0B3FD00208DF81A000120C8
:100910008DF81B0000208DF81C008DF81D008DF84F
:100920001E008DF81F008DF816808DF817408DF889
:1009300018608DF81950ADF8147005A91B4800F027
:10094000C4F90E208DF80E0000208DF80F00012054
:100950008DF810000020ADF80400ADF80600ADF8E9
:100960000800ADF80A00ADF80C0001208DF8110068
:1009700001A800F08DF8012202210C4800F09CF93A
:1009800040208DF8000004208DF8010000208DF833
:10099000020001208DF80300684600F0DBFE002015
:1009A0000AB0BDE8F0810000000402400068004089
:1009B00000220C4B994202D10023836111E0C1F364
:1009C000130201F000730BB1C2600AE001F0806312
:1009D0000BB1026105E001F000630BB1826000E041
:1009E000426070477000F030B1F5007F3AD00FDC04
:1009F000202928D006DC01291CD004291DD0082973
:100A000040D11DE0402921D0B1F5807F3AD126E0C8
:100A1000B1F5004F31D006DCB1F5806F25D0B1F5CE
:100A2000006F2FD124E0B1F5803F12D0B1F5003F27
:100A300028D111E0154A826025E00822C26022E038
:100A40001022C2601FE0082202611CE01022026135
:100A500019E00822426016E01022426013E00422EE
:100A6000426010E0042242600DE0042242600AE08D
:100A7000002282610422426005E000228261042299
:100A8000426000E000BF00BF7047000001010100AC
:100A900010B50021837A012202FA03F13D4A12685F
:100AA00042F001023B4B1A603A4A1C3212688A43F8
:100AB000384B1C331A60027BCAB9364A0C321268B2
:100AC0008A43344B0C331A604288C38842EA03439A
:100AD000304A4032847A42F834300288838842EACD
:100AE00003432C4A4032847A02EBC4025360027BF7
:100AF000012A19D1274A0C3212680A43254B0C33BC
:100B00001A604288038842EA0343224A4032847AC8
:100B100042F83430C288838842EA03431D4A403297
:100B2000847A02EBC4025360C27A3AB9194A121DA0
:100B300012688A43174B1B1D1A6006E0154A121DE6
:100B400012680A43134B1B1D1A60028932B9114AFD
:100B5000143212688A430F4B14331A600289012A37
:100B600006D10C4A143212680A430A4B14331A6035
:100B7000427B012A06D1074A1C3212680A43054B00
:100B80001C331A60034A126822F00102014B1A60FA
:100B900010BD00000066004070B504460D460026FA
:100BA00060692840002871D0B5F5807F5CD010DCEA
:100BB000082D35D006DC012D20D0022D24D0042DA7
:100BC00072D127E0102D31D0202D35D0402D6BD1A2
:100BD00038E0B5F5004F60D009DCB5F5007F49D0AD
:100BE000B5F5806F4CD0B5F5006F5DD14FE0B5F530
:100BF000803F2DD0B5F5003F56D12FE0A0682D499C
:100C000000F048FA064651E0E068032100F042FA9D
:100C100006464BE0E068082100F03CFA064645E055
:100C2000E068102100F036FA06463FE02069032113
:100C300000F030FA064639E02069082100F02AFA6F
:100C4000064633E02069102100F024FA06462DE024
:100C50006068082100F01EFA064627E0606810214F
:100C600000F018FA064621E0A069012100F012FA0E
:100C700006461BE0A069022100F00CFA064615E0CA
:100C8000A069042100F006FA06460FE00FE0A06913
:100C9000702100F0FFF9064608E06068042100F0CA
:100CA000F9F9064602E0FFE7002600BF00E0002653
:100CB000304670BD010101001AB143690B43436125
:100CC00002E043698B434361704730B50246002020
:100CD0000023146824F002041460146844F0010432
:100CE000146000E05B1C546804F001041CB94FF66A
:100CF000FF74A342F6D1546804F001040CB900203B
:100D00006CE08C79012C04D1146844F080041460E8
:100D100003E0146824F080041460CC79012C04D121
:100D2000146844F04004146003E0146824F04004A4
:100D300014600C7A012C04D1146844F0200414606F
:100D400003E0146824F0200414604C7A012C04D1D0
:100D5000146844F01004146003E0146824F01004D4
:100D600014608C7A012C04D1146844F008041460D7
:100D700003E0146824F008041460CC7A012C04D138
:100D8000146844F00404146003E0146824F00404BC
:100D900014608C78A407CD7844EA05640D7944EAA0
:100DA00005444D7944EA05540D886D1E2C43D461E9
:100DB000146824F001041460002300E05B1C5468F4
:100DC00004F001041CB14FF6FF74A342F6D154683D
:100DD00004F001040CB1002000E0012030BD10B58A
:100DE00000F5D87303EB01131B6803F004031372BF
:100DF000137A53B900F5D87303EB01131B6840F263
:100E0000FF7404EA5353136009E000F5D87303EB51
:100E100001131B686FF0604404EAD303536000F5CC
:100E2000D87303EB01131B6803F00203537200F540
:100E3000D87303EB01135B6803F00F03937200F5A3
:100E4000D87303EB01135B681B0AD37400F5D873E6
:100E500003EB01139B68D37200F5D87303EB011306
:100E60009B681C0A147300F5D87303EB01139B688D
:100E70001C0C547300F5D87303EB01139B681B0E15
:100E8000937300F5D87303EB0113DB68D37300F59C
:100E9000D87303EB0113DB681C0A147400F5D873D4
:100EA00003EB0113DB681C0C547400F5D87303EBDF
:100EB0000113DB681B0E937421B9C36843F0200350
:100EC000C36003E0036943F02003036110BD10B564
:100ED00002460020936803F08063B3F1806F00D175
:100EE00010E0936803F00063B3F1006F01D10120BB
:100EF00008E0936803F08053B3F1805F01D10220D2
:100F000000E00420042874D002F5C07303EB001342
:100F10001B6803F0010402F5C07303EB00131C60AF
:100F20000B7A7BB94B7A0C8843EA445302F5C074C0
:100F300004EB00142468234302F5C07404EB00148E
:100F4000236010E00B7A4C6843EAC4034C7A2343D5
:100F500002F5C07404EB00142468234302F5C07446
:100F600004EB001423608B7A03F00F038B7202F5FD
:100F7000C07303EB00135B6823F00F0402F5C0732A
:100F800003EB00135C6002F5C07303EB00135B68B6
:100F90008C7A234302F5C07404EB001463608B7BEE
:100FA0001C064B7B44EA03440B7B44EA0323CC7AC4
:100FB000234302F5C07404EB0014A3608B7C1C0671
:100FC0004B7C44EA03440B7C44EA0323CC7B23435D
:100FD00002F5C07404EB0014E36002F5C07303EB88
:100FE00000131B6843F0010402F5C07303EB001308
:100FF0001C6010BD10B50246002321B1012907D0A5
:1010000002290FD109E090681D4C00EA04030BE0AF
:1010100090681C4C00EA040306E090681A4C00EA51
:10102000040301E0002300BF00BF184C181BA342BB
:1010300016D007DC83B16FF08060184470B10228CD
:1010400018D111E0B0F5007F10D0114C204448B108
:10105000B0F5003F0ED10BE002230DE000230BE0C2
:10106000002309E0002307E0012305E0012303E05A
:10107000012301E0002300BF00BFD8B210BD000073
:101080000300000400030008000003100001000832
:101090000001FFF70246002002EA01030BB1012024
:1010A00000E00020704710B501FB02F303EBD3749E
:1010B000B0EB640F01DD01FB120001FB02F463429F
:1010C00003EBD374B0EB640F02DA01FB02F3181ADE
:1010D00010BD000010B50949094800F011F90128B8
:1010E0000BD10649064800F011F80449044800F005
:1010F00027F80449044800F0E5FC10BD00880020F2
:10110000886402403A2F01204C2F01200246094BEF
:101110009A4201D2084801E00648103801F0005315
:101120001BB1064B0B40C36002E0044B0B408360D5
:101130007047000010640240006002407D0F7D0F88
:101140000246094B9A4201D2084801E0064810388D
:1011500001F000531BB1064B0B40C36002E0044B8F
:101160000B40836070470000106402400060024042
:101170007D0F7D0F21B1026842F00102026003E0A1
:10118000026822F00102026070470000016821F04D
:10119000010101600021016041608160C160016165
:1011A000212141614A49884204D13D21484A103AEF
:1011B00091608CE046491831884205D14FF4746142
:1011C000434A103A916082E041493031884205D16A
:1011D0004FF474113E4A103A916078E03C4948312E
:1011E000884205D14FF07461394A103A91606EE03F
:1011F00037496031884204D13649354A103AD160C6
:1012000065E033497831884204D13349304A103A95
:10121000D1605CE02E499031884204D12F492C4A9C
:10122000103AD16053E02A49A831884205D14FF0E5
:101230003D51274A103AD16049E02949884204D1FA
:101240003D21274A083A116041E02549183188427A
:1012500005D14FF47461224A083A116037E0204901
:101260003031884205D14FF474111D4A083A11609B
:101270002DE01B494831884205D14FF07461184A6E
:10128000083A116023E016496031884204D11149BF
:10129000134A121F11601AE011497831884204D1B3
:1012A0000D490F4A121F116011E00D49903188421B
:1012B00004D10A490A4A121F116008E00849A831FE
:1012C000884204D14FF03D51054A121F116070470A
:1012D000106002403D000020400F002000003D2033
:1012E00010640240014600200A6802F001020AB1BF
:1012F000012000E0002070470146486880B2704736
:1013000030B503460A46002000240B4DAB4201D203
:101310000A4901E00849103902F000550DB14C6846
:1013200000E00C68064D2C4004EA02050DB10120D6
:1013300000E0002030BD0000106402400060024068
:101340007D0F7D0F10B501F080034BB122B14369D1
:1013500043F08003436103E0436923F0800343616A
:1013600080290BD02AB1036801F01E0423430360D7
:1013700004E0036801F01E04A343036010BD0000F5
:1013800010B500220268134B1A40CC680B68234347
:101390004C6923438C692343CC6923430C6A234360
:1013A0004C6A23438C6A23434C6B23438C6B23434B
:1013B0001A430260426922F00702D1E90B34234349
:1013C0001A4342610B6943604B6883608B68C3605A
:1013D00010BD00003F801CF0416070477047F0B5C1
:1013E0000A4600210023002400BF3DE0012505FA44
:1013F00001F3156805EA03049C4234D105684F00E7
:101400000326BE40B543056015794E00B540066819
:10141000354305601579012D02D01579022D16D1BD
:1014200085684F000326BE40B543856055794E0060
:10143000B540866835438560456801268E40B543D2
:101440004560456896798E40B6B235434560C568BB
:101450004F000326BE40B543C560D5794E00B54068
:10146000C6683543C560491C1029BFD3F0BDF0B52F
:10147000002300244D07ED0E02FA05F3CE1000F113
:10148000200555F826504E07F70E0F26BE40B543EF
:10149000CF1000F1200646F82750CE1000F12005AD
:1014A00055F8265045EA0304CE1000F1200545F812
:1014B0002640F0BD00BFFEE74649098800297DD0DF
:1014C00000207DE04449095CFE2975D1424A00F1C3
:1014D0000D01515CEE296FD111468978527841EAAD
:1014E000022109B200EE101AB8EEC00ADFED3B0A85
:1014F00080EE201A3A4981ED041A37490979364AB3
:10150000D27841EA022109B200EE101AB8EEC00A00
:10151000DFED320A80EE201A314981ED051A2E499D
:1015200089792D4A527941EA022109B2494200EEF5
:10153000101AB8EEC00ADFED290A80EE201A2849F9
:1015400081ED061A2449097A234AD27941EA022117
:1015500009B200EE101AB8EEC00ADFED200A80EEE4
:10156000201A1F4981ED091A1B49897A1A4A527AB1
:1015700041EA022109B200EE101AB8EEC00ADFED0E
:10158000170A80EE201A164981ED081A1249097BC4
:10159000114AD27A41EA022109B2494200EE101AF8
:1015A000B8EEC00ADFED0D0A80EE201A0C4981ED7D
:1015B000071A00F10D0188B2411C00E008E088B272
:1015C000084909888842FFF67DAF0021014A118051
:1015D000704700009C000020212F01200000C8421D
:1015E000E02E01209E00002010B52DED028B044658
:1015F000F0EE408A94ED050A30EE680A84ED100A98
:1016000094ED0C0A30EE000A84ED0C0A94ED0C0AFD
:10161000BDEEC00A10EE100A264A514200F077FFD4
:1016200000EE100AB8EEC00A84ED0C0A94ED100A20
:10163000D4ED110A30EE600ABDEEC00AB0EE408A69
:1016400094ED000AD4ED100A20EE200AD4ED010A30
:1016500094ED0C1A00EE810AD4ED020AB8EEC81A15
:1016600000EE810A84ED070A94ED000AD4ED100A19
:1016700020EE200A84ED090A94ED010AD4ED0C0A4B
:1016800020EE200A84ED0A0A94ED020AF8EEC80A58
:1016900020EE200A84ED0B0A94ED100A84ED110A65
:1016A00094ED070ABDEEC00A10EE100ABDEC028BE5
:1016B00010BD0000F0D8FFFF00BFFEE710B52DED14
:1016C000028B1148B0F902201048408800EB8000DE
:1016D00001B24FF4FA630E4800F00EFB00EE100A60
:1016E000B8EEC00AB0EE408A094890ED070ABDEE98
:1016F000C00A10EE100A02B200210846FEF72AFFC7
:10170000BDEC028B10BD00007C2E01204C2F01206F
:10171000AC37012070B504460E461546A08920B9A5
:10172000208800B220810120A08121882289891A85
:1017300008B22946FEF7F9FE2169084420612A46CD
:1017400031462069FFF7AFFC2061208800B220817C
:1017500070BD704770B5002100230F22C4781CB300
:10176000174C246804F4E064C4F5E064C4F3072172
:10177000C1F10404E3B20A4144789C40E1B28478A8
:10178000144021430C07210E0E4C05786155047856
:1017900004F01F050124AC4005786D11AD0005F182
:1017A000E025C5F8004109E0047804F01F05012494
:1017B000AC40054D0678761145F8264070BD000016
:1017C0000CED00E000E400E080E100E002490143AC
:1017D000024A1160704700000000FA050CED00E0BD
:1017E00010B59FED4A2ADFED491A9FED491ADFED4A
:1017F000470AB2EE000A474800F09AFE9FED432ADE
:10180000DFED421A9FED421ADFED400AB2EE000A08
:1018100040484C3000F08CFE9FED3C2ADFED3B1A37
:101820009FED3B1ADFED390AB2EE000A39489830D5
:1018300000F07EFE9FED352ADFED341A9FED341A5D
:10184000DFED320AB2EE000A3248E43000F070FEFA
:101850009FED2E2ADFED2D1A9FED2F1ADFED2B0ABB
:101860009FED2B0A2D4800F063FE9FED282ADFED47
:10187000271A9FED261ADFED250AB2EE020A284844
:1018800000F056FE9FED212ADFED201A9FED1F1A72
:10189000DFED1E0A9FED230A234800F049FE9FED6D
:1018A0001B2ADFED1A1A9FED191ADFED180AB1EEA7
:1018B0000E0A1D484C3000F03BFE9FED142ADFED70
:1018C000131A9FED1A1ADFED110A9FED190A194834
:1018D00000F02EFE9FED0D2ADFED0C1A9FED0B1A86
:1018E000DFED0A0AB2EE020A12484C3000F020FE88
:1018F0009FED062ADFED051A9FED051ADFED030ABD
:10190000B2EE000A0C4800F013FE10BD000000000B
:10191000CDCC4C3E982F01206210983EFC30012027
:101920004831012000001842403201200000C84226
:1019300000000243EC360120AC37012029B1064AF1
:1019400012680243044B1A6004E0034A126882439F
:10195000014B1A60704700003038024029B1064A36
:1019600012680243044B1A6004E0034A126882437F
:10197000014B1A60704700004038024029B1064A06
:1019800012680243044B1A6004E0034A126882435F
:10199000014B1A60704700002038024029B1064A06
:1019A00012680243044B1A6004E0034A126882433F
:1019B000014B1A60704700004438024029B1064AC2
:1019C00012680243044B1A6004E0034A126882431F
:1019D000014B1A607047000024380240F0B5002126
:1019E00000220024022500260223324F3F6807F020
:1019F0000C0121B1042905D0082937D105E02E4F6B
:101A0000076036E02D4F076033E02A4F3F1F3F68E5
:101A1000C7F38056274F3F1F3F6807F03F036EB163
:101A2000264FB7FBF3F7DFF88CC0ACF1040CDCF801
:101A300000C0CCF3881C07FB0CF40CE01E4FB7FB76
:101A4000F3F7DFF870C0ACF1040CDCF800C0CCF3A5
:101A5000881C07FB0CF4174F3F1F3F68C7F3014773
:101A60007F1C7D00B4FBF5F7076002E0124F0760B2
:101A700000BF00BF0F4F3F6807F0F0010909104F8A
:101A80007A5C0768D74047600A4F3F6807F4E05127
:101A9000890A0B4F7A5C4768D7408760054F3F68DB
:101AA00007F46041490B064F7A5C4768D740C7602E
:101AB000F0BD0000083802400024F40040787D01A9
:101AC0001400002001B100B970470A784B7842EA4F
:101AD0000322C2F30A0202804A78D2108B7842EACB
:101AE0004312C2F30A0242808A789211CB7842EA0A
:101AF00083020B7942EA8322C2F30A0282800A79C6
:101B000052104B7942EAC312C2F30A02C2804A79E8
:101B1000C2F3011282724A7912119208C2728A7952
:101B2000CB7942EA032212B282810A7A4B7A42EAE4
:101B3000032213B200F10C02C3818A7ACB7A42EA03
:101B4000032213B200F10C0203820B7B83744B7BE4
:101B5000C3748A7BCB7B42EA032282820A7C4B7C61
:101B600042EA0322C2F30A0202810288A2F58062DD
:101B700012B202804288A2F5806212B2428082884C
:101B8000A2F5806212B28280C288A2F5806212B28F
:101B9000C2800289A2F5806212B20281B0F90020EF
:101BA0000A2A04DCB0F9002012F10A0F02DA0288D6
:101BB000028001E000220280B0F902200A2A04DC3F
:101BC000B0F9022012F10A0F02DA4288428001E0E5
:101BD00000224280B0F904200A2A04DCB0F9042073
:101BE00012F10A0F02DA8288828001E000228280EC
:101BF000B0F906200A2A04DCB0F9062012F10A0F17
:101C000002DAC288C28001E00022C28000BF5BE726
:101C100010B52349B1F9000000F074FCB0F52F7F36
:101C200000DD1BE01E49B1F9020000F06BFCB0F5CD
:101C30002F7F00DD12E01A49B1F9040000F062FCC8
:101C4000B0F52F7F00DD09E01549B1F9060000F07D
:101C500059FCB0F52F7F00DD00E010BD00201049D9
:101C6000088048808880C88008810320887202200C
:101C7000C8720020888100210948C18101828174D5
:101C8000C174002006498882022000F0F7FB122070
:101C900000F008F8022000F0F1FB00BFDDE70000D3
:101CA0004C2F012010B504460021104800F0DDF94A
:101CB00000210F48FFF75EFA21460D48FFF78CFB25
:101CC00010210A4800F0C8F94FF081510848FFF789
:101CD0001DFA08490648FFF733FA01210448FFF7C7
:101CE00049FA0121014800F0C0F910BD001001407F
:101CF00040640240008020102DE9F04104460D466A
:101D000016461F4600EE105AB8EEC00A84ED050ACA
:101D100000EE106AB8EEC00A84ED060AD4ED060A99
:101D2000B0EE600A2046FFF75FFC80467A423946F3
:101D3000404600F0ECFB80460FFA88F0BDE8F081E9
:101D400002E0142001F022FBFBE700001CB5044672
:101D500001F002FA0D48042100235022CDE90010C1
:101D60000BA10F4802F0ACF80E4805210023C82251
:101D7000CDE900100CA10F4802F0A2F80E4800684F
:101D800001F032FB01F012FA1CBD0000B40000208B
:101D900053414645434845434B5F5461736B0000D4
:101DA000411D0008B8000020544553545F5461732E
:101DB0006B000000B91F0008BC0000200CB500201B
:101DC000019000903448006840F480303249086047
:101DD00000BF3148006800F4003000900198401CBA
:101DE0000190009818B90198B0F5A04FF1D12A4898
:101DF000006800F4003010B10120009001E00020E4
:101E000000900098012846D123484030006840F0F7
:101E100080502149403108602048006840F440402B
:101E20001E4908601C48083000681B4908310860DA
:101E30000846006840F4004008600846006840F426
:101E4000A05008601648091F0860081F006840F08D
:101E50008070091F086000BF0F48006800F0007024
:101E60000028F9D040F205700E4908600A48083091
:101E7000006820F00300084908310860084600683F
:101E800040F00200086000BF03480830006800F01E
:101E90000C000828F8D10CBD00380240007000404A
:101EA00019544007003C02401CB50548012100239D
:101EB0003222CDE9001003A1054802F001F81CBD53
:101EC000BC00002053544152545F5461736B0000B6
:101ED0004D1D0008042808D14FF0E021096941F0A8
:101EE00004014FF0E022116107E04FF0E0210969A1
:101EF00021F004014FF0E0221161704710B502F0AB
:101F00000FF8012801D001F0D1FC10BD10B5154823
:101F1000006840F47000134908601348006840F0FE
:101F200001001149086000200F49083108600E487F
:101F300000680E4908400C4908600D48091D0860FA
:101F4000081F006820F48020091F0860002006494F
:101F50000C310860FFF732FF4FF000600149803913
:101F6000086010BD88ED00E000380240FFFFF6FE7B
:101F70001030002408B54FF44070FFF727FCB42060
:101F800000F05AFA01F096F800F040FA00F026FA54
:101F900000200323042207210090FEF7A7FB002066
:101FA0000323042207210090FEF780FCFFF718FCB2
:101FB000642000F063FA08BD06E0FFF729FEFFF792
:101FC0007DFB022001F0E2F9F7E7000070B5002583
:101FD00040F224411A4800F0D5F800282FD0002103
:101FE0001848FFF7C7F800BF1648FFF77BF900282D
:101FF000FAD113480088C5B21148001D0088C5B247
:102000001048FFF779F9C0F11900C5B20E480580F4
:10201000002405E00D48005D0D490855601C84B2A0
:10202000AC42F7DB19210748FFF7D6F90121054833
:10203000FFF7A0F8012007490880FFF73DFA70BDBF
:1020400000440040886002409E000020F82D0120DE
:10205000212F01209C00002001F40072B2F5007FC6
:1020600000D100BFCA430280704721B1828942F487
:102070000052828104E082894DF6FF731A4082810A
:1020800070471AB1838A0B43838202E0838A8B43B1
:102090008382704710B504463248844208D101213A
:1020A0001020FFF78BFC00211020FFF787FC57E082
:1020B0002D48844209D101214804FFF75FFC00212B
:1020C0004FF40030FFF75AFC4AE02848844209D117
:1020D00001218804FFF752FC00214FF48020FFF714
:1020E0004DFC3DE02248844209D10121C804FFF79C
:1020F00045FC00214FF40020FFF740FC30E01D4874
:10210000844209D101210805FFF738FC00214FF472
:102110008010FFF733FC23E01748844208D10121E7
:102120002020FFF74BFC00212020FFF747FC17E0A1
:102130001248844209D101218807FFF71FFC0021C2
:102140004FF08040FFF71AFC0AE00D48844207D1A7
:1021500001214005FFF712FC00216005FFF70EFC8E
:1021600010BD000000100140004400400048004045
:10217000004C004000500040001401400078004036
:10218000007C004070B5024600240023002500209A
:1021900040F66A16B14200D100BFC1F3421501F00A
:1021A0001F03012606FA03F3012D02D1968933405D
:1021B00006E0022D02D1168A334001E0968A3340B0
:1021C0000C12012606FA04F41688344013B10CB13F
:1021D000012000E0002070BD2DE9FF4705460E46B6
:1021E0000024A14600BFA046B08900B100BF2C8AE0
:1021F00024F44054F08804432C82AC8941F20C60F2
:102200008443B08831890843718908430443AC8111
:10221000AC8A24F44074B0890443AC826846FFF76A
:10222000DDFB2048854202D01F48854202D1DDF8FF
:102230000C9001E0DDF80890A88900F4004040B15E
:1022400009EBC90000EB091031684900B0FBF1F758
:1022500007E009EBC90000EB091031688900B0FB09
:10226000F1F76420B7FBF0F004012009642101FBC1
:102270001078A88900F4004040B1322000EBC8007B
:10228000B0FBF1F000F00700044308E0322000EB5F
:1022900008106421B0FBF1F000F00F0004432C8122
:1022A000BDE8FF87001001400014014000BFFEE7B9
:1022B00030B597B005460C4601214348FFF73EFB79
:1022C00001211020FFF76AFB07220A213F48FFF790
:1022D000CEF84FF48060159002208DF85800002051
:1022E0008DF85A0003208DF8590000208DF85B000E
:1022F00015A93648FFF773F83548FFF7CBFE354888
:1023000011900020ADF84800ADF84A004FF480600D
:10231000ADF84C000420ADF84E000020ADF85000A0
:1023200011A92B48FFF758FF01212948FFF79DFE0F
:10233000012240212648FFF7A4FE44208DF8040026
:1023400000208DF805008DF8060001208DF80700AB
:1023500001A8FFF7FFF900211F48FEF70BFF00BFA0
:102360001D48006800F001000028F9D11A48FEF766
:102370000DFF4FF0006002901548001D039004957A
:1023800000200590069407904FF48060089000208C
:1023900009900A904FF480700B904FF440300C90ED
:1023A00000200D900E900F90109002A90A48FEF7A1
:1023B000E7FF012210210848FEF7C4FF012106486B
:1023C000FEF7D8FE17B030BD01004000000002400B
:1023D00000100140A0860100886402401CB5012164
:1023E0000820FFF7ABFA4FF48050009003208DF8DF
:1023F000050000208DF804008DF8070069460248AA
:10240000FEF7EDFF1CBD0000000C02401CB50121D1
:102410000846FFF793FA0820009003208DF8050086
:1024200000208DF804008DF8070069460148FEF78A
:10243000D6FF1CBD0000024070B504460420FFF723
:1024400049FD0C48047025464FF47A70454301203D
:10245000094908804FF0E020006940F002004FF089
:10246000E021086108464561006940F0010008610B
:1024700070BD0000980000209A00002070B504464E
:1024800001F04EFD012810D00B480088844206D38D
:1024900009480088B4FBF0F5284600F077FF0648AD
:1024A0000088B4FBF0F100FB11444FF47A7104FB97
:1024B00001F000F003F870BD9A00002070B50346EB
:1024C00000224FF0E02675690D4E367803FB06F4C6
:1024D0004FF0E026B16910E04FF0E026B069884285
:1024E0000BD0884202D20E1A324402E02E1A0E4459
:1024F00032440146A24200D300E0EDE700BF70BDC8
:1025000098000020002801DA414208B27047884252
:1025100001DD084602E0904200DA10467047FFF7FE
:1025200029FDFFF7C1FC01F08BF800BFFEE70000BA
:10253000014609B90020704781ED000AC1ED010A8A
:1025400081ED021ADFED172AC1ED052ADFED152A0C
:10255000C1ED062ADFED132AC1ED072ADFED112AAE
:10256000C1ED082ADFED0F2AC1ED0C2ADFED0D2A9F
:10257000C1ED0F2AC1ED0E2AC1ED0D2ADFED092AAA
:10258000C1ED102AC1ED102AC1ED102ADFED052A98
:10259000C1ED072AC1ED092AC1ED0A2AC1ED0B2AB6
:1025A0000120C8E7000000002DE9F04105460E4675
:1025B0001C4807681C480068001D00F083FD50B9E6
:1025C0001948006890F82C100120884017490968C4
:1025D000814316480160681C38B936B11248016859
:1025E000091D134800F0ACFD1AE07C190E48006884
:1025F0004460BC4207D20C480168091D0D480068C0
:1026000000F084FD0CE008480168091D0A480068D4
:1026100000F07CFD09480068844201D2074804604C
:10262000BDE8F08138000020240000203C0000209C
:10263000BC0100202C0000202800002054000020B5
:1026400010B5044600F088FD24480068401C23496A
:1026500008602348006840B92148046008460068C3
:1026600001280DD100F0DEF90AE01E48006838B9F3
:102670001B480068C06AE16A884201D818480460B3
:1026800019480068401C1849086008460068206422
:1026900094F82C1001208840144909680843134914
:1026A0000860E16A01EB8101114A02EB8100211D02
:1026B00000F046FD00F07AFD0A48006868B108485D
:1026C0000068C06AE16A884207D24FF08050094929
:1026D0000860BFF34F8FBFF36F8F10BD3400002031
:1026E0002400002040000020500000203C0000207A
:1026F0000801002004ED00E010B500F02DFD1048A9
:102700000068D0B90F4800F0F1FC0F4800F0EEFC73
:102710000C480E4908600C480D49086000220C2145
:102720000A2001F0DDF8064908600846006820B17B
:1027300008A10348006800F0EDFD00F037FD10BD72
:1027400068000020D0010020E4010020600000208B
:1027500064000020546D72510000000070B523E049
:1027600000F0B8FF1348006808B9012000E000201D
:10277000054601F03FFDBDB900F0EEFC0D48C06814
:10278000C468201D00F09EFC0B480068401E0A49EA
:1027900008600A480068401E0849086000F006FD0D
:1027A000204600F060F800BF044800680028D7D138
:1027B00070BD0000A801002034000020300000207F
:1027C00070B504460D46206C70B1216CE068084479
:1027D000E0606168E068884201D32068E0602846D4
:1027E000226CE168FDF79CFD70BD2DE9F0410446C7
:1027F0000F4615464FF00008A66B206C40B92068C4
:1028000060BB606801F046FC80460020606025E007
:102810007DB93946226CA068FDF782FD216CA06865
:102820000844A060D4E90110884217D32068A06052
:1028300014E03946226CE068FDF772FD216CE06817
:10284000401AE0602168E068884203D2216C606829
:10285000401AE060022D01D106B1761E701CA06303
:102860004046BDE8F08110B50446206B00F0BCFC8A
:10287000204600F0B9FC10BD0146084A12681268F3
:102880000AB9012200E000220A600A6822B9034A5C
:102890001268D268106800E00020704760000020D5
:1028A00030B54FF49633174800F007042CB1C01D23
:1028B00020F00700134C041B1B1B0246124C226025
:1028C0000024114D6C60D018083820F007000F4C20
:1028D000206000240D4D2D686C600C4D2D682C601F
:1028E0001146441A4C60094C24680C60084D4C6831
:1028F0002C60084D4C682C604FF00044064D2C6055
:1029000030BD0000F8010020740000207C00002091
:1029100084000020800000208800002000BFFFF716
:102920001DFF064800680128F9D94FF0805004497E
:102930000860BFF34F8FBFF36F8FF0E708010020EF
:1029400004ED00E02DE9F04106460D461746984695
:10295000069C0DB9246000E02760E6632564012130
:10296000204601F0CBF884F84C80BDE8F0812DE9D9
:10297000F05F82460F4690469B460A9E0C9C4FEAAB
:102980008801A522206BFDF710FDA8F10100216B45
:1029900001EB800929F0070909F0070008B90120B7
:1029A00000E0002050B900BF502080F31188BFF331
:1029B0004F8FBFF36F8F00BF00BFFEE7002507E01A
:1029C000795D04F134004155785D00B902E06D1C79
:1029D0000A2DF5D300BF00213D200155052E00D35F
:1029E0000426E662A6640020E064201D00F08BFB54
:1029F00004F1180000F087FB2461C6F10500A06116
:102A000064620020206584F854005A4651464846C6
:102A100000F03AFB20600B9808B10B980460BDE809
:102A2000F09F000010B5002407E004EB84010F4A7A
:102A300002EB810000F05AFB641C052CF5D30C4816
:102A400000F054FB0B4800F051FB0B4800F04EFB2C
:102A50000A4800F04BFB0A4800F048FB04480949CB
:102A6000086004480849086010BD00000801002003
:102A70006C0100208001002094010020A8010020AA
:102A8000BC010020280000202C00002010B50146C9
:102A9000164800E0006803688B42FBD30246436897
:102AA00013448B4204D143684C682344436001467D
:102AB0000A464B6813440468A34211D10C4C0368C6
:102AC0002468A34208D04B680468646823444B60C0
:102AD00003681B680B6005E0054B1B680B6001E099
:102AE00003680B60884200D0016010BD74000020B4
:102AF0007C0000202DE9F04104460D4616461F4695
:102B00004FF0000865602461B5420CD8F01BA16944
:102B1000884202D34FF0010811E0211D09480068E6
:102B200000F0F4FA0BE0BE4204D2BD4202D34FF0F3
:102B3000010804E0211D0448006800F0E7FA40465F
:102B4000BDE8F081640000206000002070B50546FB
:102B500000F002FBA86B08B9012400E0002400F09B
:102B600025FB204670BD70B5054600F0F5FAA86B50
:102B7000E96B884201D1012400E0002400F016FB3B
:102B8000204670BDF8B505460F4616480068C06877
:102B9000C468201D00F096FAE06901281DD1A069E3
:102BA00041192B463A462046FFF7A4FFA8B1002062
:102BB00003462A4601460090204601F0C9FB06461E
:102BC00056B900BF502080F31188BFF34F8FBFF379
:102BD0006F8F00BF00BFFEE700BF2046616A8847D5
:102BE000F8BD00006000002070B586B06AE0039870
:102BF000002867DB059C606908B9012000E000201F
:102C000010B9201D00F05EFA02A800F0BDF80546DC
:102C100003980A2854D2DFE800F009050731334F42
:102C20000608323400BF00BF00BF00BF0498A2698D
:102C3000811803462A462046FFF75CFFE8B120468C
:102C4000616A8847E069012817D100200090049844
:102C5000A169421800231946204601F079FB064677
:102C600056B900BF502080F31188BFF34F8FBFF3D8
:102C70006F8F00BF00BFFEE700BF22E000BF20E073
:102C800000BF0498A061A06908B1012000E0002005
:102C900050B900BF502080F31188BFF34F8FBFF3AE
:102CA0006F8F00BF00BFFEE7A06941192B462A467F
:102CB0002046FFF71FFF04E0204600F095FA00E0F1
:102CC00000BF00BF00231A4603A90448006800F0B3
:102CD00033FE00288BD106B070BD000068000020D4
:102CE000F8B505460C4600F0F5FC684600F04CF8D7
:102CF0000646009820BB44B9B54206D801F07AFADE
:102D000031462846FFF73EFF1CE03CB10E48006804
:102D1000006808B9012000E000200446A91B2246F3
:102D20000A48006800F00CFB01F064FA50B94FF05B
:102D3000805007490860BFF34F8FBFF36F8F01E0EA
:102D400001F058FAF8BD000064000020680000207F
:102D500004ED00E00A490968096809B9012100E0A9
:102D6000002121B14FF0FF31064A116006E004490D
:102D70000968C968C868034A416811607047000063
:102D8000280000205400002070B5044601F0D8F857
:102D9000054607480068854204D200F00BF8012080
:102DA000206001E00020206001480560284670BDD9
:102DB000700000202DE9F84332E024480068C06824
:102DC000056822480068C068C468201D00F07AF9D0
:102DD0002046616A8847E069012821D1A069461927
:102DE000AE4207D966602461211D1848006800F0D2
:102DF0008DF915E0002003462A4601460090204642
:102E000001F0A6FA074657B900BF502080F3118899
:102E1000BFF34F8FBFF36F8F00BF00BFFEE700BF50
:102E20000A480068006808B9012000E00020002876
:102E3000C3D00648D0F80080054800680349086000
:102E40000348C0F80080BDE8F8830000600000205F
:102E5000640000200E480068401C08B9012000E012
:102E6000002050B900BF502080F31188BFF34F8F6E
:102E7000BFF36F8F00BF00BFFEE700BF502080F39D
:102E80001188BFF34F8FBFF36F8F00BF00BFFEE706
:102E90008C00002008B500BF6846FFF7EDFC044633
:102EA00020460099FFF71CFFFFF79EFEF4E770B580
:102EB000044600F051F994F9455010E0606A08B9F1
:102EC000012000E0002038B904F1240001F046F9A7
:102ED00018B100F003FB00E003E0681E45B2002DCE
:102EE000ECDC00BFFF2084F8450000F05FF900F043
:102EF00033F994F9445010E0206908B9012000E04A
:102F0000002048B904F1100001F028F908B100F0E0
:102F1000E5FA681E45B200E001E0002DECDC00BFE0
:102F2000FF2084F8440000F041F970BD2DE9F04124
:102F300004464FF0000800F0CDFB4648006808B991
:102F4000FFF7AEFC44480068204000286BD1D4B1A4
:102F5000083404F00700B0B104F00700C0F1080025
:102F6000044404F0070008B9012000E0002050B933
:102F700000BF502080F31188BFF34F8FBFF36F8FD6
:102F800000BF00BFFEE7002C4DD0344800688442EB
:102F900049D8334E3046056801E02E462D686868F2
:102FA000A04202D228680028F7D12A48006885424A
:102FB00039D0306800F10808286830606868001B64
:102FC000102819D92F1907F0070008B9012000E0CF
:102FD000002050B900BF502080F31188BFF34F8FFD
:102FE000BFF36F8F00BF00BFFEE76868001B78600B
:102FF0006C603846FFF74AFD184968680968081A86
:10300000164908600846006816490968884203D2D4
:1030100012480068134908600F4968680968084346
:1030200068600020286001F0E5F808F0070008B9A2
:10303000012000E0002050B900BF502080F311882B
:10304000BFF34F8FBFF36F8F00BF00BFFEE7404657
:10305000BDE8F0817C000020880000208000002076
:1030600074000020840000200648006830B1054943
:10307000096801F14C00C96C491C016001480068F5
:103080007047000024000020001F4FF08073036091
:10309000001F21F001030360001F054B036014387B
:1030A0000260001F6FF002030360203870470000C9
:1030B000552E000810B512210148FFF7F9F810BD90
:1030C0003A2F012001460A69D1E901309860D1E91F
:1030D000010358605068884201D188685060002020
:1030E00008611068401E10601068704700F1080108
:1030F00041604FF0FF31816000F10801C160016162
:1031000000210160704700210161704710B502463F
:103110000B685C1C0CB9106907E002F1080000E0C4
:103120004068446824689C42FAD944684C604C6802
:10313000A160886041600A611468641C146010BD5D
:1031400042684A6093688B60936859609160086137
:1031500003685B1C0360704700BF502080F3118838
:10316000BFF34F8FBFF36F8F00BF0E480068401C46
:103170000C49086008460068012812D10A48006816
:10318000C0B208B9012000E0002050B900BF5020B3
:1031900080F31188BFF34F8FBFF36F8F00BF00BF65
:1031A000FEE770478C00002004ED00E00D48006849
:1031B00050B900BF502080F31188BFF34F8FBFF389
:1031C0006F8F00BF00BFFEE706480068401E05493C
:1031D00008600846006820B9002080F3118800BF0D
:1031E00000BF70478C00002070B506463546002EA3
:1031F0003FD0083D2C461F4960680968084008B167
:10320000012000E0002050B900BF502080F3118859
:10321000BFF34F8FBFF36F8F00BF00BFFEE7206883
:1032200008B9012000E0002050B900BF502080F311
:103230001188BFF34F8FBFF36F8F00BF00BFFEE752
:103240000C4960680968084098B1206888B9094944
:10325000606809688843606000F03CFA064960686D
:1032600009680844044908602046FFF70FFC00F095
:10327000C1FF70BD88000020800000200648006863
:103280004FF47A71B0FBF1F0401E4FF0E02148613D
:1032900007200861704700000000002070B5FDF7AE
:1032A0001BF80446102C16D304F1E02090F8F053DC
:1032B00015480078854201DB012000E0002050B96C
:1032C00000BF502080F31188BFF34F8FBFF36F8F83
:1032D00000BF00BFFEE70D48006800F4E0600C4945
:1032E0000968884201D8012000E0002050B900BFE1
:1032F000502080F31188BFF34F8FBFF36F8F00BF53
:1033000000BFFEE770BD0000900000200CED00E063
:1033100094000020024600200BE0084B53F83030A8
:1033200033B9064B43F8301003EBC0035A6002E098
:10333000401C0828F1D300BF70470000C8000020DF
:103340002DE9F04105460E4617462C46FFF704FFCF
:1033500094F94400401C10B9002084F8440094F90A
:103360004500401C10B9002084F84500FFF71EFFFF
:10337000A06B28B93A46314604F1240000F0D0F899
:103380002046FFF794FDBDE8F081000070B50446CB
:103390000025D4B11248006808B9012000E00020DF
:1033A00050B900BF502080F31188BFF34F8FBFF397
:1033B0006F8F00BF00BFFEE700F08CF900212046B0
:1033C000FFF7F2F800F016FF05463DB94FF08050C8
:1033D00004490860BFF34F8FBFF36F8F70BD0000CB
:1033E0005C00002004ED00E070B50546FFF7B4FE78
:1033F00015B93048006800E028460446201DFFF754
:1034000061FE78B9E06A00EB80002B4951F820009A
:1034100040B994F82C10012088402849096881435C
:1034200026480160A06A18B104F11800FFF74AFEAF
:1034300023480068401C224908601E4800688442F6
:1034400009D1211D1F48FFF77BFE1F480068401C63
:103450001D49086009E01D480068401E1B490860BE
:103460002046FFF700FAFFF775FCFFF79FFE1848AC
:103470000068E8B10F480068844219D11548006817
:1034800008B9012000E0002050B900BF502080F3AF
:103490001188BFF34F8FBFF36F8F00BF00BFFEE7F0
:1034A0004FF080500C490860BFF34F8FBFF36F8F10
:1034B00070BD000024000020080100203C00002016
:1034C00050000020A801002030000020340000201F
:1034D000400000205C00002004ED00E001200149D4
:1034E000086070474800002070B504460D4654B986
:1034F00000BF502080F31188BFF34F8FBFF36F8F51
:1035000000BF00BFFEE70548016818312046FFF7FD
:10351000FDFD01212846FFF747F870BD240000207B
:1035200070B505460E46144655B900BF502080F3CD
:103530001188BFF34F8FBFF36F8F00BF00BFFEE74F
:103540000648016818312846FFF7FAFD0CB14FF024
:10355000FF3621463046FFF727F870BD24000020D3
:1035600070B505462C46002D4BD02649E06A096807
:10357000C96A884245D2A06900F0004028B92148B4
:103580000068C06AC0F10500A061E16A01EB810139
:103590001D4A02EB81016069884201D1012000E0EF
:1035A000002050B3201DFFF78DFD78B9E06A00EBD5
:1035B0008000154951F8200040B994F82C100120E2
:1035C0008840124909688143104801600D4800682D
:1035D000C06AE06294F82C10012088400B49096809
:1035E00008430A490860E16A01EB8101064A02EBDF
:1035F0008100211DFFF7A4FD03E002480068C06AB6
:10360000E06270BD24000020080100203C00002082
:1036100050B900BF502181F31188BFF34F8FBFF322
:103620006F8F00BF00BFFEE70349096801600349CF
:1036300009684160704700004C00002038000020FD
:103640001CB51D4800210B468222CDE900101BA1AC
:103650001C4800F035FC0446012C02D100F04CFE61
:103660000446012C15D100BF502080F31188BFF310
:103670004F8FBFF36F8F00BF4FF0FF3012490860CC
:1036800001201249086000201149086000F070F81C
:1036900010E0601C08B1012000E0002050B900BF1C
:1036A000502080F31188BFF34F8FBFF36F8F00BF9F
:1036B00000BFFEE71CBD00005800002049444C45F7
:1036C000000000001D2900085400002040000020D8
:1036D0003800002002480068401C0149086070471B
:1036E0005C0000201D48006818B101201C490860DA
:1036F00032E000201A4908601A480068B0FA80F0E9
:10370000C0F11F0101EB8100174A52F8200008B1F7
:10371000012000E0002050B900BF502080F3118844
:10372000BFF34F8FBFF36F8F00BF00BFFEE701EB0A
:1037300081020D4B03EB820042685268426000F147
:1037400008024368934202D142685268426042686C
:10375000D268064B1A6000BF704700005C00002072
:10376000480000203C000020080100202400002028
:103770001CB5474800684749884201D0012000E055
:10378000002050B900BF502080F31188BFF34F8F45
:10379000BFF36F8F00BF00BFFEE73D4800683D49A3
:1037A000491E884201D0012000E0002050B900BF2E
:1037B000502080F31188BFF34F8FBFF36F8F00BF8E
:1037C00000BFFEE73449084600780190FF200A4612
:1037D00010700846007800909DF8000000F0F0009E
:1037E0009DF80020904201D1012000E0002050B956
:1037F00000BF502080F31188BFF34F8FBFF36F8F4E
:1038000000BF00BFFEE79DF8000000F05000234A13
:1038100010700720224A106009E021480068401E0D
:103820001F4A10609DF800004006000E00909DF8B1
:10383000000000F080008028EFD0194800680002E6
:10384000174A10601046008800F4E0601060124AC9
:10385000019810700E482030006840F470000C4948
:10386000203108600846006840F070400860FFF7AB
:1038700005FD00200B490860FCF7F6FC0A480068CB
:1038800040F0404008490860FCF7DEFC00201CBD09
:1038900000ED00E071C20F4100E400E09000002064
:1038A000940000208C00002034EF00E010B500BF31
:1038B000502080F31188BFF34F8FBFF36F8F00BF8D
:1038C00000F044FB18B14FF080500449086000BF7D
:1038D000002080F3118800BF10BD000004ED00E05F
:1038E0002DE9F84305460E4690460DB1012000E053
:1038F000002050B900BF502080F31188BFF34F8FD4
:10390000BFF36F8F00BF00BFFEE70EB9002701E0D5
:1039100005FB06F707F15000FFF708FB044644B12A
:1039200004F1500943464A46314628460094FFF7C1
:1039300009F82046BDE8F8832DE9FF4782B0054627
:103940000E461F464FF0000A2C4654B900BF5020C7
:1039500080F31188BFF34F8FBFF36F8F00BF00BF9D
:10396000FEE70EB9206C08B9012000E0002050B934
:1039700000BF502080F31188BFF34F8FBFF36F8FCC
:1039800000BF00BFFEE700F0CBFA08B9049808B901
:10399000012000E0002050B900BF502080F31188C2
:1039A000BFF34F8FBFF36F8F00BF00BFFEE700BFB5
:1039B000FFF7D2FBD4F83890B9F1000F3DD0D4F81E
:1039C0000C8031462046FEF7FBFEDFB9A9F101006D
:1039D000A063206810B9FFF747FB6060206908B951
:1039E000012000E0002010BB04F1100000F0B6FB45
:1039F000E8B14FF0805040490860BFF34F8FBFF3EC
:103A00006F8F14E0C4F80C80606A08B9012000E0F0
:103A1000002060B904F1240000F0A0FB38B14FF0A1
:103A2000805035490860BFF34F8FBFF36F8FFFF7AA
:103A3000BDFB012006B0BDE8F087049818B9FFF778
:103A4000B5FB0020F6E7BAF1000F04D16846FFF796
:103A5000DFFD4FF0010AFFF7A9FBFFF73BFEFFF781
:103A60007BFB94F94400401C10B9002084F844000A
:103A700094F94500401C10B9002084F84500FFF778
:103A800095FB04A9684600F0D5F940BB2046FFF736
:103A90005DF8F0B1206830B9FFF75EFB6068FFF7B2
:103AA0005FFDFFF783FB04F124000499FFF71CFD81
:103AB0002046FFF7FCF900F09DFB00287FF478AF6B
:103AC0004FF080500C490860BFF34F8FBFF36F8FEA
:103AD0006EE72046FFF7EBF900F08CFB68E7204625
:103AE000FFF7E5F900F086FB2046FFF72FF80028E6
:103AF000EED000209EE7000004ED00E070B5054622
:103B00000E462C4654B900BF502080F31188BFF3F5
:103B10004F8FBFF36F8F00BF00BFFEE7FFF71CFBA7
:103B2000D4E90F12206801FB020060600020A0634E
:103B30002068A060E06B401E226C216800FB021030
:103B4000E060FF2084F8440084F845009EB92069B5
:103B500008B9012000E00020A8B904F1100000F02D
:103B6000FDFA80B14FF0805009490860BFF34F8FD4
:103B7000BFF36F8F07E004F11000FFF7B7FA04F10D
:103B80002400FFF7B3FAFFF711FB012070BD00001E
:103B900004ED00E02DE9FF4383B0064688461D464C
:103BA0004FF00009344654B900BF502080F311880B
:103BB000BFF34F8FBFF36F8F00BF00BFFEE7B8F1B9
:103BC000000F01D1206C08B9012000E0002050B99D
:103BD00000BF502080F31188BFF34F8FBFF36F8F6A
:103BE00000BF00BFFEE7022D02D1E06B012801D12A
:103BF000012000E0002050B900BF502080F3118860
:103C0000BFF34F8FBFF36F8F00BF00BFFEE700F021
:103C100087F908B9059808B9012000E0002050B9DB
:103C200000BF502080F31188BFF34F8FBFF36F8F19
:103C300000BF00BFFEE700BFFFF78EFAA06BE16B8D
:103C4000884201D3022D28D12A4641462046FEF75C
:103C5000CCFD0746606A08B9012000E0002068B981
:103C600004F1240000F07AFA88B14FF08050324914
:103C70000860BFF34F8FBFF36F8F08E03FB14FF085
:103C800080502D490860BFF34F8FBFF36F8FFFF750
:103C90008DFA012007B0BDE8F083059818B9FFF749
:103CA00085FA0020F6E7B9F1000F04D101A8FFF76B
:103CB000AFFC4FF00109FFF779FAFFF70BFDFFF7B3
:103CC0004BFA94F94400401C10B9002084F84400D9
:103CD00094F94500401C10B9002084F84500FFF716
:103CE00065FA05A901A800F0A5F8F0B92046FEF78D
:103CF0003AFFA0B104F110000599FFF7F5FB20464B
:103D0000FFF7D5F800F076FA002895D14FF08050F3
:103D100009490860BFF34F8FBFF36F8F8CE72046D0
:103D2000FFF7C5F800F066FA86E72046FFF7BFF810
:103D300000F060FA0020ADE704ED00E02DE9F05F4F
:103D400007468A4690461E463C4654B900BF50205E
:103D500080F31188BFF34F8FBFF36F8F00BF00BF99
:103D6000FEE7BAF1000F01D1206C08B9012000E094
:103D7000002050B900BF502080F31188BFF34F8F4F
:103D8000BFF36F8F00BF00BFFEE7022E02D1E06BD2
:103D9000012801D1012000E0002050B900BF5020CF
:103DA00080F31188BFF34F8FBFF36F8F00BF00BF49
:103DB000FEE7FFF773FA00BF5021EFF3118081F3A4
:103DC0001188BFF34F8FBFF36F8F00BF0546A06B05
:103DD000E16B884201D3022E23D194F945B03246DB
:103DE00051462046FEF701FD0BF1010088B9606ADB
:103DF00008B9012000E0002080B904F1240000F09F
:103E0000ADF958B1B8F1000F08D00120C8F8000092
:103E100004E00BF1010040B284F845004FF00109C5
:103E200001E04FF0000900BF85F3118800BF48464C
:103E3000BDE8F09F70B504460D4654B900BF502050
:103E400080F31188BFF34F8FBFF36F8F00BF00BFA8
:103E5000FEE755B900BF502080F31188BFF34F8FA4
:103E6000BFF36F8F00BF00BFFEE7FFF775F9124881
:103E700003682868401C08B9002619E00F4920682B
:103E80000968884204D06068984201D801260FE092
:103E90006068181A2968884209D228686168591A26
:103EA000401A28602046FFF7B3FB002600E00126F9
:103EB000FFF77CF9304670BD380000204C00002030
:103EC0002DE9FF4F85B0804689461746DDE912ABE4
:103ED000B800FFF72BF8064656B15820FFF726F832
:103EE00004460CB1266304E03046FFF77DF900E09C
:103EF00000247CB10020CDE900ABCDE902403A4678
:103F000049464046089BFEF732FD2046FEF798FBE7
:103F1000012501E04FF0FF35284609B0BDE8F08FDC
:103F20000549096809B9012005E00449096809B98A
:103F3000022000E000207047400000205C000020CC
:103F40000149086870470000380000202DE9F04161
:103F50004FF0000844480068002877D143480068C3
:103F6000451C4248056015BB41480068006808B917
:103F7000012000E0002050B900BF502080F31188DC
:103F8000BFF34F8FBFF36F8F00BF00BFFEE738480E
:103F90000768384800683649086036480760364880
:103FA0000068401C34490860FEF7D4FE00BF334867
:103FB000006885423CD300BF2D480068006808B9FE
:103FC000012000E0002020B14FF0FF302B490860B5
:103FD0002DE027480068C068C4686668B54202D210
:103FE0002648066023E0201DFFF76CF8A06A18B190
:103FF00004F11800FFF766F894F82C1001208840AF
:104000001F49096808431E490860E16A01EB810104
:104010001C4A02EB8100211DFFF792F81A49E06A61
:104020000968C96A8842C7D34FF00108C4E700BFD6
:1040300015480068C06A00EB8000124951F8200062
:10404000012801D94FF0010805E0FFE70F4800689B
:10405000401C0E4908600E48006808B14FF0010886
:104060004046BDE8F08100005C00002038000020E0
:10407000280000202C0000204C00002054000020CC
:104080003C00002008010020240000204400002003
:104090004800002070B505462C460026002D55D05E
:1040A0002B480068844201D1012000E0002050B973
:1040B00000BF502080F31188BFF34F8FBFF36F8F85
:1040C00000BF00BFFEE7E06C50B900BF502080F396
:1040D0001188BFF34F8FBFF36F8F00BF00BFFEE7A4
:1040E000E06C401EE064A16CE06A88422ED0E06C77
:1040F00060BB201DFEF7E6FF78B9E06A00EB8000A8
:10410000144951F8200040B994F82C10012088403F
:1041100011490968814310480160A06CE062E06ABF
:10412000C0F10500A06194F82C10012088400A49D4
:104130000968084308490860E16A01EB8101054A02
:1041400002EB8100211DFEF7FBFF0126304670BD0A
:1041500024000020080100203C00002070B5064625
:10416000F068C46854B900BF502080F31188BFF3D1
:104170004F8FBFF36F8F00BF00BFFEE704F1180041
:10418000FEF7A0FF15480068A8B9201DFEF79AFFAA
:1041900094F82C10012088401149096808431049FF
:1041A0000860E16A01EB81010E4A02EB8100211DEA
:1041B000FEF7C6FF04E004F118010B48FEF7C0FF4C
:1041C0000A49E06A0968C96A884204D901250120C0
:1041D0000749086000E00025284670BD5C0000200B
:1041E0003C00002008010020940100202400002051
:1041F0004800002070B5002400263648006850B9F9
:1042000000BF502080F31188BFF34F8FBFF36F8F33
:1042100000BF00BFFEE7FEF79FFF2E480068401E6C
:104220002C4908600846006800284FD12A480068D9
:1042300000284BD024E02948C068C46804F1180065
:10424000FEF740FF201DFEF73DFF94F82C100120E3
:10425000884023490968084321490860E16A01EB65
:104260008101204A02EB8100211DFEF769FF1E49F2
:10427000E06A0968C96A884202D301201B490860C4
:104280001648006808B9012000E000200028D2D0BC
:104290000CB1FEF75FFD1648056865B100BFFFF77A
:1042A00055FE10B10120114908606D1E002DF6D198
:1042B00000200F4908600D48006838B1012630071A
:1042C0000C490860BFF34F8FBFF36F8FFEF76EFF8F
:1042D000304670BD5C0000203400002094010020B6
:1042E0003C0000200801002024000020480000209D
:1042F0004400002004ED00E01CB50024FEF7FCF9AA
:104300000E48006858B10E48022100234FF4827213
:10431000CDE900100BA10D48FFF7D2FD044654B9BA
:1043200000BF502080F31188BFF34F8FBFF36F8F12
:1043300000BF00BFFEE720461CBD00006800002053
:104340006C000020546D722053766300952E000897
:104350002DE9FE4304460D4616461F46DDF828802B
:104360004FF0000954B900BF502080F31188BFF30B
:104370004F8FBFF36F8F00BF00BFFEE71448006888
:1043800010B3009501960294062D15DAFFF7C8FDCB
:10439000022808D10023424669460D480068FFF70D
:1043A000F9FB814610E000231A4669460848006878
:1043B000FFF7F0FB814607E000233A4669460448D0
:1043C0000068FFF7BBFC81464846BDE8FE8300005D
:1043D000680000204FF04070E1EE100A70470000C6
:1043E0000044000800000020C8000000C4010008CC
:1043F000C8440008C8000020903D0100E00100080A
:10440000007A030A0000000000000000010203041B
:10441000060708090000000001020304010203046A
:10442000060708090000000000000000000000006E
:10443000000000000000000000000000000000007C
:10444000000000000000000000000000000000006C
:10445000000000000000000000000000000000005C
:10446000000000000000000000000000000000004C
:10447000000000000000000000000000000000003C
:10448000000000000000000000000000AAAAAAAA84
:10449000000000000000000000000000000000001C
:1044A000020000000000000000000000000000000A
:1044B00000000000000000000000000000000000FC
:0844C0000000000000000000F4
:040000050800018965
:00000001FF
